:100000000C942A000C9484080C94BB080C94F208FD
:100010000C9447000C94570E0C9447000C94470026
:100020000C9447000C9447000C9447000C94470034
:100030000C9447000C9447000C9447000C94470024
:100040000C9447000C9447000C9447000C94470014
:100050000C94470011241FBECFE5D8E0DEBFCDBF12
:1000600010E0A0E6B0E0EEE8F2E202C005900D92EA
:10007000AE36B107D9F720E0AEE6B0E001C01D9280
:10008000A538B207E1F70E9461030C9445110C9466
:100090000000CF93DF93CDB7DEB70E94290961E45A
:1000A00071E080E00E945C0862E080E00E943C0712
:1000B0006CE271E081E00E945C0862E081E00E94F5
:1000C0003C0761E670E081E00E943A0961E670E079
:1000D00080E00E94C10B63E082E00E944E0163E079
:1000E00083E00E944E016FE080E00E942F0381E6D2
:1000F00090E00E94690110926E000000DF91CF91A4
:100100000895CF93DF93CDB7DEB780916E00882F2F
:1001100090E08230910539F1833091052CF40097FD
:1001200051F0019799F08AC083309105C9F1049785
:1001300009F46BC083C067E080E00E94480363E07D
:1001400080E00E9416030E94770285C088EE93E04B
:100150000E94950980916E00882309F475C082E0A1
:1001600080936E0071C081E0809360006EE080E05B
:100170000E94480360E080E00E94160388EB9BE049
:100180000E941C0C82E30E9491020E9477028091DF
:100190006E00882309F45AC083E080936E0056C035
:1001A0006BE080E00E94480362E080E00E9416035A
:1001B00084EF91E00E9495098CE692E00E941C0C6D
:1001C0000E94F5020E94770284EF91E00E94950957
:1001D00080916E008823E1F180916000882F90E08B
:1001E000009719F0019729F008C082E080936E0013
:1001F0000BC084E080936E0007C081E080936000B4
:1002000082E080936E0024C023C0109260006DE0F5
:1002100080E00E94480361E080E00E94160380EDC8
:1002200097E00E941C0C8EE10E94910280916E006A
:10023000882381F083E080936E000CC010926E00E2
:1002400081E08093600007C000005FCF00005DCFB9
:1002500000005BCF000059CFCF93DF93CDB7DEB75F
:1002600080916E00882349F481E0809360001092B1
:100270006F0081E080936E0001C00000DF91CF919C
:100280000895CF93DF93CDB7DEB781E080936F0001
:1002900010926E000000DF91CF910895CF93DF930D
:1002A00000D0CDB7DEB789836A8340E06A81898157
:1002B0000E946E03882339F441E06A8189810E949B
:1002C000150581E001C080E00F900F90DF91CF9184
:1002D0000895CF93DF9300D01F92CDB7DEB79B83F5
:1002E0008A838A819B81FC01808191819093720035
:1002F000809371001982A3C08981282F30E0C90141
:10030000880F991F880F991F820F931F8A599F4F3B
:10031000FC0150818981282F30E0C901880F991F85
:10032000880F991F820F931F8D599F4FFC01808169
:1003300041E0652F0E946E038981282F30E0C901BA
:10034000880F991F880F991F820F931F8A599F4FFB
:10035000FC0150818981282F30E0C901880F991F45
:10036000880F991F820F931F8C599F4FFC0180812A
:1003700041E0652F0E946E038981282F30E0C9017A
:10038000880F991F880F991F820F931F8A599F4FBB
:10039000FC0150818981282F30E0C901880F991F05
:1003A000880F991F820F931F8B599F4FFC018081EB
:1003B00041E0652F0E946E038981282F30E0C9013A
:1003C000880F991F880F991F820F931F8A599F4F7B
:1003D000FC0150818981282F30E0C901880F991FC5
:1003E000880F991F820F931F8D599F4FFC018081A9
:1003F00041E0652F0E9415058981282F30E0C90151
:10040000880F991F880F991F820F931F8A599F4F3A
:10041000FC0150818981282F30E0C901880F991F84
:10042000880F991F820F931F8C599F4FFC01808169
:1004300040E0652F0E94150589818F5F898389813E
:10044000823008F459CF8AEE92E00E943E0E80E09E
:100450000F900F900F90DF91CF910895CF93DF937E
:100460001F92CDB7DEB789838981282F30E0C9017B
:10047000880F991F880F991F820F931F8A599F4FCA
:10048000FC0140818981282F30E0C901880F991F24
:10049000880F991F820F931F8D599F4FFC018081F8
:1004A000642F0E9433068981282F30E0C901880F0C
:1004B000991F880F991F820F931F8A599F4FFC0124
:1004C00040818981282F30E0C901880F991F880F4A
:1004D000991F820F931F8C599F4FFC018081642FBD
:1004E0000E94330680E00F90DF91CF910895CF9363
:1004F000DF93CDB7DEB7909167008091650040E053
:10050000692F0E94150590916C0080916A0040E06F
:10051000692F0E941505109270000000DF91CF91A5
:100520000895CF93DF9300D000D000D0CDB7DEB7D1
:100530008E838E81853610F081E043C09E818DECE4
:10054000989F812D1124869586958695898389812A
:10055000882F90E09B838A838981882F90E02AE00E
:1005600030E0A901481B590BCA019D838C8314C03C
:100570008091660043E06FEF0E94CF068A819B81E5
:100580000E9495098091660043E060E00E94CF06DA
:100590008C819D810E94950980917000813071F05D
:1005A0008091710090917200892B11F380917100FC
:1005B00090917200FC0180818823D1F2109270002A
:1005C00080E026960FB6F894DEBF0FBECDBFDF9158
:1005D000CF910895CF93DF93CDB7DEB781E08093BD
:1005E00070000000DF91CF910895CF93DF93CDB7D6
:1005F000DEB78091710090917200892B51F080914B
:10060000710090917200FC018081813011F481E0D1
:100610000AC080E00E942E0282E30E94910280E0E4
:100620000E942E0280E0DF91CF910895CF93DF9357
:1006300000D01F92CDB7DEB78A836B8341E06A8119
:100640008B810E941505898381E09981913009F0A1
:1006500080E00F900F900F90DF91CF910895CF938E
:10066000DF9300D01F92CDB7DEB78A836B834B81B7
:100670006FEF8A810E946206898381E099819130BF
:1006800009F080E00F900F900F90DF91CF910895C7
:10069000CF93DF9300D01F92CDB7DEB78A836B83F1
:1006A0004B8160E08A810E94CF06898381E0998135
:1006B000913009F080E00F900F900F90DF91CF9173
:1006C0000895CF93DF93CDB7DEB70E9449000E9413
:1006D000810080E090E0DF91CF910895CF93DF9388
:1006E00000D01F92CDB7DEB789836A834B8389819F
:1006F000883010F081E0E4C08A81882F90E081305A
:10070000910509F441C0823091051CF4892B49F010
:10071000D4C08230910509F46AC0039709F49AC0E5
:10072000CCC08B818130A9F48AE390E02AE330E0E9
:10073000F9012081622F2981422F50E021E030E031
:1007400002C0220F331F4A95E2F7262BFC012083BB
:10075000B6C08B818823B1F48AE390E02AE330E0CD
:10076000F9012081622F2981422F50E021E030E001
:1007700002C0220F331F4A95E2F720952623FC0181
:1007800020839DC081E09CC08B818130A9F487E3E8
:1007900090E027E330E0F9012081622F2981422F88
:1007A00050E021E030E002C0220F331F4A95E2F70B
:1007B000262BFC01208383C08B818823B1F487E33F
:1007C00090E027E330E0F9012081622F2981422F58
:1007D00050E021E030E002C0220F331F4A95E2F7DB
:1007E00020952623FC0120836AC081E069C08B81AB
:1007F0008130A9F484E390E024E330E0F901208122
:10080000622F2981422F50E021E030E002C0220F08
:10081000331F4A95E2F7262BFC01208350C08B81C1
:100820008823B1F484E390E024E330E0F9012081EF
:10083000622F2981422F50E021E030E002C0220FD8
:10084000331F4A95E2F720952623FC01208337C009
:1008500081E036C08B818130A9F481E390E021E30F
:1008600030E0F9012081622F2981422F50E021E000
:1008700030E002C0220F331F4A95E2F7262BFC011D
:1008800020831DC08B818823B1F481E390E021E3B4
:1008900030E0F9012081622F2981422F50E021E0D0
:1008A00030E002C0220F331F4A95E2F7209526233D
:1008B000FC01208304C081E003C081E001C080E02E
:1008C0000F900F900F90DF91CF910895CF93DF930A
:1008D00000D000D0CDB7DEB789836A835C834B83B9
:1008E0008981883010F081E099C08A81882F90E05A
:1008F0008130910579F1823091051CF4892B49F002
:100900008CC08230910509F446C0039709F464C095
:1009100084C089E390E0FC018081282F30E0898148
:10092000482F50E081E090E002C0880F991F4A955F
:10093000E2F7822393232981222F30E002C095958C
:1009400087952A95E2F7282F8B819C81FC012083D3
:1009500080E064C086E390E0FC018081282F30E0D5
:100960008981482F50E081E090E002C0880F991FF4
:100970004A95E2F7822393232981222F30E002C097
:10098000959587952A95E2F7282F8B819C81FC010C
:10099000208380E043C083E390E0FC018081282F26
:1009A00030E08981482F50E081E090E002C0880F5C
:1009B000991F4A95E2F7822393232981222F30E061
:1009C00002C0959587952A95E2F7282F8B819C8107
:1009D000FC01208380E022C080E390E0FC01808164
:1009E000282F30E08981482F50E081E090E002C05C
:1009F000880F991F4A95E2F7822393232981222F9A
:100A000030E002C0959587952A95E2F7282F8B81D3
:100A10009C81FC01208380E001C081E00F900F9059
:100A20000F900F90DF91CF910895CF93DF9300D077
:100A30001F92CDB7DEB789836A834B838981883063
:100A400010F081E00AC18A81882F90E08130910501
:100A500009F44BC0823091051CF4892B49F0FCC08D
:100A60008230910509F47EC0039709F4B8C0F4C040
:100A70008B81813019F08B818823A1F58B818823AC
:100A8000C1F02BE330E08BE390E0FC0160818981D1
:100A9000482F50E081E090E0A0E0B0E004C0880F73
:100AA000991FAA1FBB1F4A95D2F7862BF901808395
:100AB0001BC02BE330E08BE390E0FC016081898177
:100AC000482F50E081E090E0A0E0B0E004C0880F43
:100AD000991FAA1FBB1F4A95D2F780958623F9015B
:100AE000808302C081E0B9C0B7C08B81813019F02A
:100AF0008B818823A1F58B818823C1F028E330E026
:100B000088E390E0FC0160818981482F50E081E01A
:100B100090E0A0E0B0E004C0880F991FAA1FBB1F9F
:100B20004A95D2F7862BF90180831BC028E330E079
:100B300088E390E0FC0160818981482F50E081E0EA
:100B400090E0A0E0B0E004C0880F991FAA1FBB1F6F
:100B50004A95D2F780958623F901808302C081E00F
:100B60007CC07AC08B81813019F08B818823A1F5FC
:100B70008B818823C1F025E330E085E390E0FC0120
:100B800060818981482F50E081E090E0A0E0B0E0F2
:100B900004C0880F991FAA1FBB1F4A95D2F7862B46
:100BA000F90180831BC025E330E085E390E0FC0180
:100BB00060818981482F50E081E090E0A0E0B0E0C2
:100BC00004C0880F991FAA1FBB1F4A95D2F78095B2
:100BD0008623F901808302C081E03FC03DC08B8144
:100BE000813019F08B818823A1F58B818823C1F096
:100BF00022E330E082E390E0FC0160818981482FAC
:100C000050E081E090E0A0E0B0E004C0880F991FC0
:100C1000AA1FBB1F4A95D2F7862BF90180831BC000
:100C200022E330E082E390E0FC0160818981482F7B
:100C300050E081E090E0A0E0B0E004C0880F991F90
:100C4000AA1FBB1F4A95D2F780958623F90180839E
:100C500002C081E002C0000080E00F900F900F9072
:100C6000DF91CF910895CF93DF9300D000D0CDB71F
:100C7000DEB78B836C838B81883010F081E01BC0E2
:100C80001A82CE010296AC016C818B810E946604AF
:100C900089838981882371F49A8181E0992309F0FD
:100CA00080E08A838A81482F6C818B810E941505A0
:100CB00080E001C081E00F900F900F900F90DF91C6
:100CC000CF910895CF93DF9300D01F92CDB7DEB7B9
:100CD00089836A834B838B81882311F48FEF8B8305
:100CE0008981882F90E081309105E9F0823091056B
:100CF0001CF4892B39F04AC08230910529F1039701
:100D0000A1F144C08AE390E02B81422F40952AE371
:100D100030E0F901208124234B813A813423232BB5
:100D2000FC01208335C087E390E02B81422F409562
:100D300027E330E0F901208124234B813A813423D9
:100D4000232BFC01208324C084E390E02B81422FDD
:100D5000409524E330E0F901208124234B813A813E
:100D60003423232BFC01208313C081E390E02B81EB
:100D7000422F409521E330E0F901208124234B816B
:100D80003A813423232BFC01208302C081E001C07F
:100D900080E00F900F900F90DF91CF910895CF9347
:100DA000DF9300D01F92CDB7DEB789836A834B8370
:100DB0008B81882311F48FEF8B838981882F90E0BA
:100DC00081309105E9F0823091051CF4892B39F0CE
:100DD0004AC08230910529F10397A1F144C08BE309
:100DE00090E02B81422F40952BE330E0F9012081E8
:100DF00024234B813A813423232BFC01208335C0EB
:100E000088E390E02B81422F409528E330E0F90100
:100E1000208124234B813A813423232BFC0120831E
:100E200024C085E390E02B81422F409525E330E0FC
:100E3000F901208124234B813A813423232BFC01A7
:100E4000208313C082E390E02B81422F409522E360
:100E500030E0F901208124234B813A813423232B74
:100E6000FC01208302C081E001C080E00F900F9060
:100E70000F90DF91CF910895CF93DF9300D01F9211
:100E8000CDB7DEB78A836B8381E089838A81833023
:100E900008F00AC18B81843008F006C18A81882F4E
:100EA00090E08130910509F46FC08230910509F41A
:100EB000D3C0892B09F0F9C08BE590E02BE530E039
:100EC000F90120812064FC0120838B81882F90E030
:100ED00081309105F9F0823091051CF4892B39F0AD
:100EE000E2C08230910549F10397D1F1DCC085E57C
:100EF00090E025E530E0F90120812E7FFC01208380
:100F000085E590E025E530E0F90120812D7FFC01A9
:100F1000208339C085E590E025E530E0F9012081A6
:100F20002160FC01208385E590E025E530E0F901B2
:100F300020812D7FFC01208326C085E590E025E5FA
:100F400030E0F90120812E7FFC01208385E590E0CF
:100F500025E530E0F90120812260FC01208313C0E7
:100F600085E590E025E530E0F90120812160FC0174
:100F7000208385E590E025E530E0F90120812260BD
:100F8000FC01208300008FC08BE590E02BE530E072
:100F9000F90120812068FC0120838B81882F90E05B
:100FA00081309105F9F0823091051CF4892B39F0DC
:100FB0007AC08230910549F10397D1F174C085E57B
:100FC00090E025E530E0F90120812B7FFC012083B2
:100FD00085E590E025E530E0F9012081277FFC01DF
:100FE000208339C085E590E025E530E0F9012081D6
:100FF0002460FC01208385E590E025E530E0F901DF
:101000002081277FFC01208326C085E590E025E52F
:1010100030E0F90120812B7FFC01208385E590E001
:1010200025E530E0F90120812860FC01208313C010
:1010300085E590E025E530E0F90120812460FC01A0
:10104000208385E590E025E530E0F90120812860E6
:10105000FC012083000027C08BE590E02BE530E009
:10106000F90120812062FC0120838B81882F90E090
:101070008230910519F0039759F014C084E590E08F
:1010800024E530E0F90120812F7BFC0120830AC098
:1010900084E590E024E530E0F90120812064FC0142
:1010A00020830000000001C0198289810F900F90F9
:1010B0000F90DF91CF910895CF93DF9300D000D0B0
:1010C000CDB7DEB78A837C836B8381E089838A8195
:1010D000833088F48B819C81892B69F08A81882FE9
:1010E00090E0880F991F8D589F4F2B813C81FC0108
:1010F0003183208301C0198289810F900F900F9056
:101100000F90DF91CF9108951F920F9200905F0092
:101110000F9211242F933F934F935F936F937F937D
:101120008F939F93AF93BF93EF93FF93CF93DF93EF
:10113000CDB7DEB78091730090917400892B31F0A8
:101140008091730090917400FC0109950000DF917B
:10115000CF91FF91EF91BF91AF919F918F917F912F
:101160006F915F914F913F912F910F9000925F008F
:101170000F901F9018951F920F9200905F000F9292
:1011800011242F933F934F935F936F937F938F938C
:101190009F93AF93BF93EF93FF93CF93DF93CDB71D
:1011A000DEB78091750090917600892B31F08091A7
:1011B000750090917600FC0109950000DF91CF91B8
:1011C000FF91EF91BF91AF919F918F917F916F911F
:1011D0005F914F913F912F910F9000925F000F9080
:1011E0001F9018951F920F9200905F000F9211248C
:1011F0002F933F934F935F936F937F938F939F931F
:10120000AF93BF93EF93FF93CF93DF93CDB7DEB749
:101210008091770090917800892B31F08091770050
:1012200090917800FC0109950000DF91CF91FF912A
:10123000EF91BF91AF919F918F917F916F915F914E
:101240004F913F912F910F9000925F000F901F9050
:101250001895CF93DF93CDB7DEB78FE590E02FE5FC
:1012600030E0F90120812068FC0120830000DF913B
:10127000CF910895CF93DF9300D01F92CDB7DEB703
:1012800089837B836A838A819B81FC018081918130
:1012900090938200809381008981882F90E000974D
:1012A00019F0019731F138C083E590E023E530E093
:1012B000F90120812F7BFC01208383E590E023E569
:1012C00030E0F9012081277FFC0120838FE590E049
:1012D0002FE530E0F90120812068FC01208389E5B9
:1012E00090E029E530E0F90120812160FC012083B4
:1012F00015C083E590E023E530E0F90120812F7BE4
:10130000FC01208383E590E023E530E0F9012081B2
:10131000277FFC01208302C081E001C080E00F90A4
:101320000F900F90DF91CF9108950F931F93CF935C
:10133000DF9300D000D000D0CDB7DEB79E838D8381
:101340008091810090918200892B51F080918100E1
:1013500090918200FC018081813011F481E02FC1E5
:101360008D819E81CC01A0E0B0E0BC01CD010E9446
:10137000E00FDC01CB0120E030E04AE754E4BC019F
:10138000CD010E943F0FDC01CB0127E337E346E0AC
:1013900055E4BC01CD010E94D310181614F481E06D
:1013A0000EC183E590E0FC0110828D819E81CC010D
:1013B000A0E0B0E0BC01CD010E94E00FDC01CB0158
:1013C00020E030E04AE754E4BC01CD010E943F0F29
:1013D000DC01CB0189839A83AB83BC832DEB37E39C
:1013E00046E05DE369817A818B819C810E943A0F9E
:1013F00088233CF502E510E029813A814B815C812C
:101400006DEB77E386E09DE30E94B60EDC01CB0135
:101410002DEB37E346E059E3BC01CD010E943F0FBD
:10142000DC01CB01BC01CD010E94B10FDC01CB017D
:10143000F801808381E090E090937A0080937900B6
:101440007CC02DEB37E346E05DE369817A818B81D7
:101450009C810E943A0F882359F482E590E0FC01B8
:10146000108281E090E090937A008093790065C0CB
:101470002DEB37E346E05DE369817A818B819C81C6
:101480000E943F0FDC01CB01BC01CD010E94230F64
:10149000DC01CB01BC01CD010E94B10FDC01CB010D
:1014A00090937A008093790002E510E080917900B2
:1014B00090917A00CC01A0E0B0E0BC01CD010E9487
:1014C000E00FDC01CB0120E030E040E85FE3BC014D
:1014D000CD010E94B60EDC01CB012DEB37E346E0D7
:1014E0005DE3BC01CD010E94D810DC01CB019C0161
:1014F000AD0169817A818B819C810E94B60EDC01ED
:10150000CB012DEB37E346E059E3BC01CD010E944E
:101510003F0FDC01CB019C01AD0160E070E080E891
:1015200093E40E94B60EDC01CB01BC01CD010E9408
:10153000B10FDC01CB01F801808310927C00109286
:101540007B0080E094E00E94EA0A1DC0000088E56C
:1015500090E0FC018081882F90E081709927892B91
:10156000B1F388E590E028E530E0F90120812160C1
:10157000FC01208380917B0090917C0001969093E8
:101580007C0080937B002091790030917A008091DB
:101590007B0090917C008217930770F4809181000A
:1015A00090918200892B91F280918100909182002C
:1015B000FC018081882351F20E949E0B80E02696D8
:1015C0000FB6F894DEBF0FBECDBFDF91CF911F9154
:1015D0000F910895CF93DF9300D0CDB7DEB79A83F4
:1015E000898389819A818034910509F44BC08134C3
:1015F000910530F48130910569F0089739F196C072
:10160000811521E0920709F459C08115944009F42D
:1016100071C08CC083E590E023E530E0F9012081C2
:101620002D7FFC01208383E590E023E530E0F90184
:1016300020812B7FFC01208383E590E023E530E0CF
:10164000F90120812160FC01208372C083E590E0D4
:1016500023E530E0F90120812E7FFC01208383E522
:1016600090E023E530E0F90120812B7FFC0120830D
:1016700083E590E023E530E0F90120812260FC0160
:10168000208356C083E590E023E530E0F901208116
:101690002B7FFC01208383E590E023E530E0F90116
:1016A00020812260FC01208383E590E023E530E087
:1016B000F90120812160FC0120833AC083E590E09C
:1016C00023E530E0F90120812D7FFC01208383E5B3
:1016D00090E023E530E0F90120812E7FFC0120839A
:1016E00083E590E023E530E0F90120812460FC01EE
:1016F00020831EC083E590E023E530E0F9012081DE
:101700002D7FFC01208383E590E023E530E0F901A3
:1017100020812460FC01208383E590E023E530E014
:10172000F90120812160FC01208302C081E001C019
:1017300080E00F900F90DF91CF910895CF93DF93CA
:10174000CDB7DEB783E590E023E530E0F9012081F5
:101750002E7FFC01208383E590E023E530E0F90152
:1017600020812D7FFC01208383E590E023E530E09C
:10177000F90120812B7FFC0120830000DF91CF91B4
:101780000895CF93DF9300D01F92CDB7DEB7898342
:101790007B836A838A819B81FC0180819181909304
:1017A0008200809381008981882F90E0009719F052
:1017B000019731F138C085E490E025E430E0F9018B
:1017C00020812F7BFC01208385E490E025E430E03C
:1017D000F9012081277FFC0120838FE590E02FE530
:1017E00030E0F90120812068FC01208389E590E048
:1017F00029E530E0F90120812064FC01208315C037
:1018000085E490E025E430E0F90120812F7BFC01A4
:10181000208385E490E025E430E0F9012081277FF2
:10182000FC01208302C081E001C080E00F900F9096
:101830000F90DF91CF9108950F931F93CF93DF9374
:1018400000D000D000D0CDB7DEB79E838D838D81D0
:101850009E81CC01A0E0B0E0BC01CD010E94E00F70
:10186000DC01CB0120E030E04AE754E4BC01CD01CB
:101870000E943F0FDC01CB0127E337E346E055E44C
:10188000BC01CD010E94D310181614F481E0D5C01C
:1018900085E490E0FC0110828D819E81CC01A0E066
:1018A000B0E0BC01CD010E94E00FDC01CB0120E0E3
:1018B00030E04AE754E4BC01CD010E943F0FDC0157
:1018C000CB0189839A83AB83BC832DEB37E346E05E
:1018D0005DE369817A818B819C810E943A0F882324
:1018E0003CF504E410E029813A814B815C816DEB89
:1018F00077E386E09DE30E94B60EDC01CB012DEB81
:1019000037E346E059E3BC01CD010E943F0FDC0103
:10191000CB01BC01CD010E94B10FDC01CB01F8016C
:10192000808381E090E09093800080937F007CC072
:101930002DEB37E346E05DE369817A818B819C8101
:101940000E943A0F882359F484E490E0FC0110824D
:1019500081E090E09093800080937F0065C02DEB44
:1019600037E346E05DE369817A818B819C810E9447
:101970003F0FDC01CB01BC01CD010E94230FDC0134
:10198000CB01BC01CD010E94B10FDC01CB019093D2
:10199000800080937F0004E410E080917F009091AC
:1019A0008000CC01A0E0B0E0BC01CD010E94E00FBE
:1019B000DC01CB0120E030E040E85FE3BC01CD0179
:1019C0000E94B60EDC01CB012DEB37E346E05DE370
:1019D000BC01CD010E94D810DC01CB019C01AD01FE
:1019E00069817A818B819C810E94B60EDC01CB01DA
:1019F0002DEB37E346E059E3BC01CD010E943F0FD8
:101A0000DC01CB019C01AD0160E070E080E893E473
:101A10000E94B60EDC01CB01BC01CD010E94B10FCA
:101A2000DC01CB01F801808310927E0010927D00D2
:101A300080E094E00E94280D80E026960FB6F8948E
:101A4000DEBF0FBECDBFDF91CF911F910F910895E3
:101A5000CF93DF9300D0CDB7DEB79A838983898196
:101A60009A818034910509F46FC08134910550F456
:101A70008830910591F18032910509F44AC00197AF
:101A800081F0D1C0811521E0920709F494C081153D
:101A9000E4E09E0709F4ABC08038910509F46FC0FB
:101AA000C2C085E490E025E430E0F90120812D7F7B
:101AB000FC01208385E490E025E430E0F9012081F9
:101AC0002B7FFC01208385E490E025E430E0F901E0
:101AD00020812160FC012083A8C085E490E025E4FA
:101AE00030E0F90120812E7FFC01208385E490E025
:101AF00025E430E0F90120812B7FFC01208385E47F
:101B000090E025E430E0F90120812260FC0120838F
:101B10008CC085E490E025E430E0F90120812B7F42
:101B2000FC01208385E490E025E430E0F901208188
:101B30002260FC01208385E490E025E430E0F90197
:101B400020812160FC01208385E490E025E430E0E1
:101B5000F90120812460FC01208385E490E025E4E4
:101B600030E0F90120812D7FFC01208385E490E0A5
:101B700025E430E0F90120812E7FFC01208385E4FB
:101B800090E025E430E0F90120812B7FFC012083E7
:101B900085E490E025E430E0F90120812D7FFC010F
:101BA000208385E490E025E430E0F9012081216084
:101BB000FC0120833AC085E490E025E430E0F9019F
:101BC00020812260FC01208385E490E025E430E060
:101BD000F90120812E7FFC01208385E490E025E43B
:101BE00030E0F90120812460FC0120831EC085E4DF
:101BF00090E025E430E0F90120812260FC0120839F
:101C000085E490E025E430E0F90120812460FC01C6
:101C1000208385E490E025E430E0F9012081216013
:101C2000FC01208302C081E001C080E00F900F9092
:101C3000DF91CF910895CF93DF93CDB7DEB785E4E1
:101C400090E025E430E0F90120812E7FFC01208323
:101C500085E490E025E430E0F90120812D7FFC014E
:101C6000208385E490E025E430E0F90120812B7F9A
:101C7000FC0120830000DF91CF910895CF93DF9383
:101C800000D0CDB7DEB79A83898389819A81892B69
:101C900041F089819A81909384008093830080E051
:101CA00001C081E00F900F90DF91CF9108951F92B6
:101CB0000F9200905F000F9211242F933F934F9348
:101CC0005F936F937F938F939F93AF93BF93EF93A4
:101CD000FF93CF93DF93CDB7DEB780917D009091D6
:101CE0007E00019690937E0080937D0020917D0080
:101CF00030917E0080917F009091800028173907F5
:101D000070F48091810090918200892BD1F08091B4
:101D1000810090918200FC018081813091F41092C9
:101D20007E0010927D000E941B0E80918300909196
:101D30008400892B31F08091830090918400FC0114
:101D400009950000DF91CF91FF91EF91BF91AF9185
:101D50009F918F917F916F915F914F913F912F91C3
:101D60000F9000925F000F901F9018955058BB275E
:101D7000AA270E94CE0E0C9481100E94731038F096
:101D80000E947A1020F039F49F3F19F426F40C9445
:101D900070100EF4E095E7FB0C944110E92F0E94BF
:101DA000921058F3BA17620773078407950720F05B
:101DB00079F4A6F50C94CC100EF4E0950B2EBA2F06
:101DC000A02D0B01B90190010C01CA01A001112441
:101DD000FF27591B99F0593F50F4503E68F11A16ED
:101DE000F040A22F232F342F4427585FF3CF46957E
:101DF00037952795A795F0405395C9F77EF41F16A0
:101E0000BA0B620B730B840BBAF09150A1F0FF0F69
:101E1000BB1F661F771F881FC2F70EC0BA0F621F55
:101E2000731F841F48F4879577956795B795F79545
:101E30009E3F08F0B0CF9395880F08F09927EE0FDA
:101E40009795879508950E94B41090F09F3748F4B5
:101E5000911116F40C94CD1060E070E080E89FE3DF
:101E6000089526F01B16611D711D811D0C944710ED
:101E70000C9462100E941D1008F481E008950E94E5
:101E8000530F0C9481100E947A1058F00E94731026
:101E900040F029F45F3F29F00C94411051110C944B
:101EA000CD100C9470100E94921068F39923B1F336
:101EB000552391F3951B550BBB27AA276217730770
:101EC000840738F09F5F5F4F220F331F441FAA1F04
:101ED000A9F335D00E2E3AF0E0E832D091505040C0
:101EE000E695001CCAF72BD0FE2F29D0660F771F6E
:101EF000881FBB1F261737074807AB07B0E809F054
:101F0000BB0B802DBF01FF2793585F4F3AF09E3FD8
:101F1000510578F00C9441100C94CD105F3FE4F320
:101F2000983ED4F3869577956795B795F7959F5F1B
:101F3000C9F7880F911D9695879597F90895E1E067
:101F4000660F771F881FBB1F621773078407BA07C6
:101F500020F0621B730B840BBA0BEE1F88F7E09521
:101F600008950E949A1088F09F5798F0B92F9927EA
:101F7000B751B0F0E1F0660F771F881F991F1AF074
:101F8000BA95C9F714C0B13091F00E94CC10B1E0FD
:101F900008950C94CC10672F782F8827B85F39F0FC
:101FA000B93FCCF3869577956795B395D9F73EF40D
:101FB00090958095709561957F4F8F4F9F4F0895B5
:101FC000E89409C097FB3EF49095809570956195D3
:101FD0007F4F8F4F9F4F9923A9F0F92F96E9BB2789
:101FE0009395F695879577956795B795F111F8CF05
:101FF000FAF4BB0F11F460FF1BC06F5F7F4F8F4F70
:102000009F4F16C0882311F096E911C0772321F065
:102010009EE8872F762F05C0662371F096E8862FFD
:1020200070E060E02AF09A95660F771F881FDAF754
:10203000880F9695879597F90895990F0008550F81
:10204000AA0BE0E8FEEF16161706E807F907C0F03E
:1020500012161306E407F50798F0621B730B840B46
:10206000950B39F40A2661F0232B242B252B21F420
:1020700008950A2609F4A140A6958FEF811D811DC0
:10208000089597F99F6780E870E060E008958823DD
:1020900071F4772321F09850872B762F07C06623A1
:1020A00011F499270DC09051862B70E060E02AF062
:1020B0009A95660F771F881FDAF7880F9695879590
:1020C00097F908959F3F31F0915020F487957795C7
:1020D0006795B795880F911D9695879597F90895FF
:1020E0009FEF80EC089500240A9416161706180630
:1020F0000906089500240A9412161306140605060C
:102100000895092E0394000C11F4882352F0BB0F9C
:1021100040F4BF2B11F460FF04C06F5F7F4F8F4FFF
:102120009F4F089557FD9058440F551F59F05F3F3A
:1021300071F04795880F97FB991F61F09F3F79F0E9
:1021400087950895121613061406551FF2CF46956B
:10215000F1DF08C0161617061806991FF1CF8695ED
:1021600071056105089408950E949A10A0F0BEE7D9
:10217000B91788F4BB279F3860F41616B11D672F76
:10218000782F8827985FF7CF869577956795B11D4B
:1021900093959639C8F30895E894BB276627772767
:1021A000CB0197F908950E941D1008F48FEF089550
:1021B0000E94EB100C9481100E94731038F00E9462
:1021C0007A1020F0952311F00C9441100C947010AB
:1021D00011240C94CD100E94921070F3959FC1F3BE
:1021E000950F50E0551F629FF001729FBB27F00DC5
:1021F000B11D639FAA27F00DB11DAA1F649F66271A
:10220000B00DA11D661F829F2227B00DA11D621F68
:10221000739FB00DA11D621F839FA00D611D221F22
:10222000749F3327A00D611D231F849F600D211D06
:10223000822F762F6A2F11249F5750409AF0F1F089
:1022400088234AF0EE0FFF1FBB1F661F771F881FF2
:1022500091505040A9F79E3F510580F00C944110D9
:102260000C94CD105F3FE4F3983ED4F386957795B8
:102270006795B795F795E7959F5FC1F7FE2B880F98
:0E228000911D9695879597F90895F894FFCFD4
:0E228E00016F000405000202060701020200B3
:00000001FF
